{
  "contractName": "SimpleStorage",
  "abi": [
    {
      "constant": true,
      "inputs": [],
      "name": "size",
      "outputs": [
        {
          "name": "",
          "type": "uint256"
        }
      ],
      "payable": false,
      "stateMutability": "view",
      "type": "function"
    },
    {
      "constant": true,
      "inputs": [
        {
          "name": "",
          "type": "uint256"
        }
      ],
      "name": "ipfsHashs",
      "outputs": [
        {
          "name": "",
          "type": "string"
        }
      ],
      "payable": false,
      "stateMutability": "view",
      "type": "function"
    },
    {
      "inputs": [],
      "payable": false,
      "stateMutability": "nonpayable",
      "type": "constructor"
    },
    {
      "constant": false,
      "inputs": [
        {
          "name": "h",
          "type": "string"
        }
      ],
      "name": "set",
      "outputs": [],
      "payable": false,
      "stateMutability": "nonpayable",
      "type": "function"
    },
    {
      "constant": true,
      "inputs": [
        {
          "name": "i",
          "type": "uint256"
        }
      ],
      "name": "get",
      "outputs": [
        {
          "name": "",
          "type": "string"
        }
      ],
      "payable": false,
      "stateMutability": "view",
      "type": "function"
    }
  ],
  "bytecode": "0x608060405234801561001057600080fd5b5060006001819055506104e6806100286000396000f300608060405260043610610062576000357c0100000000000000000000000000000000000000000000000000000000900463ffffffff1680634ed3885e14610067578063949d225d146100d05780639507d39a146100fb578063dcd8f9cf146101a1575b600080fd5b34801561007357600080fd5b506100ce600480360381019080803590602001908201803590602001908080601f0160208091040260200160405190810160405280939291908181526020018383808284378201915050505050509192919290505050610247565b005b3480156100dc57600080fd5b506100e5610299565b6040518082815260200191505060405180910390f35b34801561010757600080fd5b506101266004803603810190808035906020019092919050505061029f565b6040518080602001828103825283818151815260200191508051906020019080838360005b8381101561016657808201518184015260208101905061014b565b50505050905090810190601f1680156101935780820380516001836020036101000a031916815260200191505b509250505060405180910390f35b3480156101ad57600080fd5b506101cc6004803603810190808035906020019092919050505061035a565b6040518080602001828103825283818151815260200191508051906020019080838360005b8381101561020c5780820151818401526020810190506101f1565b50505050905090810190601f1680156102395780820380516001836020036101000a031916815260200191505b509250505060405180910390f35b6000819080600181540180825580915050906001820390600052602060002001600090919290919091509080519060200190610284929190610415565b50506001806000828254019250508190555050565b60015481565b60606000828154811015156102b057fe5b906000526020600020018054600181600116156101000203166002900480601f01602080910402602001604051908101604052809291908181526020018280546001816001161561010002031660029004801561034e5780601f106103235761010080835404028352916020019161034e565b820191906000526020600020905b81548152906001019060200180831161033157829003601f168201915b50505050509050919050565b60008181548110151561036957fe5b906000526020600020016000915090508054600181600116156101000203166002900480601f01602080910402602001604051908101604052809291908181526020018280546001816001161561010002031660029004801561040d5780601f106103e25761010080835404028352916020019161040d565b820191906000526020600020905b8154815290600101906020018083116103f057829003601f168201915b505050505081565b828054600181600116156101000203166002900490600052602060002090601f016020900481019282601f1061045657805160ff1916838001178555610484565b82800160010185558215610484579182015b82811115610483578251825591602001919060010190610468565b5b5090506104919190610495565b5090565b6104b791905b808211156104b357600081600090555060010161049b565b5090565b905600a165627a7a7230582075beab42815e2ee441df56fcecb523cd3806a6d87fe3aac258c4b31da23a58750029",
  "source": "pragma solidity 0.4.24;\n\ncontract SimpleStorage {\n  string[] public ipfsHashs;\n  uint public size;\n\n  constructor () public {\n      size = 0;\n  }\n\n  function set(string h) public {\n      ipfsHashs.push(h);\n      size += 1;\n  }\n\n  function get(uint i) public view returns (string) {\n      return ipfsHashs[i];\n  }\n}\n",
  "sourcePath": "/home/razzi/workspace/dev/Js/odh-cli/contracts/SimpleStorage.sol",
  "compiler": {
    "name": "solc",
    "version": "0.4.24+commit.e67f0147.Emscripten.clang"
  },
  "schemaVersion": "2.0.0",
  "updatedAt": "2018-06-26T07:02:37.285Z"
}